:020000040800F2
:1000000000000220A1530008F5510008FD5100082E
:10001000055200080D5200081552000800000000AB
:100020000000000000000000000000008126000821
:100030001D52000800000000D12800088D2E000885
:10004000F1530008F1530008F1530008F153000880
:10005000F1530008F1530008F1530008F153000870
:10006000F1530008F1530008F1530008F153000860
:10007000F1530008F1530008F1530008F153000850
:10008000F1530008F1530008F1530008F153000840
:10009000F1530008F1530008F1530008F153000830
:1000A000F1530008F1530008F1530008F153000820
:1000B000F1530008F1530008F1530008F153000810
:1000C000F1530008F1530008F1530008F153000800
:1000D000F1530008F1530008F1530008F1530008F0
:1000E000F1530008F1530008F1530008F1530008E0
:1000F000F1530008F1530008F1530008F1530008D0
:10010000F1530008F1530008F1530008F1530008BF
:10011000F1530008F15300082D520008F153000874
:10012000F1530008F1530008F1530008F15300089F
:10013000F15300080000000000000000F153000827
:10014000F1530008F1530008F1530008F15300087F
:10015000F1530008F1530008F1530008F15300086F
:10016000F1530008F1530008F1530008F15300085F
:10017000F1530008F1530008F1530008000000009B
:1001800000000000F1530008000000000000000023
:10019000F15300080000000000000000F1530008C7
:1001A000000000000000000000000000F153000803
:1001B000F1530008F1530008F1530008F15300080F
:0401C000F1530008EF
:1001D00053B94AB9002908BF00281CBF4FF0FF31AE
:1001E0004FF0FF3000F00CB8ADF1080C6DE904CE13
:1001F00005F000F9DDF804E0DDE9022304B0704702
:10020000704700BF844641EA000313F003036DD139
:10021000403A41D351F8043B40F8043B51F8043BC9
:1002200040F8043B51F8043B40F8043B51F8043BD0
:1002300040F8043B51F8043B40F8043B51F8043BC0
:1002400040F8043B51F8043B40F8043B51F8043BB0
:1002500040F8043B51F8043B40F8043B51F8043BA0
:1002600040F8043B51F8043B40F8043B51F8043B90
:1002700040F8043B51F8043B40F8043B51F8043B80
:1002800040F8043B51F8043B40F8043B51F8043B70
:1002900040F8043B403ABDD2303211D351F8043B10
:1002A00040F8043B51F8043B40F8043B51F8043B50
:1002B00040F8043B51F8043B40F8043B103AEDD2BF
:1002C0000C3205D351F8043B40F8043B043AF9D210
:1002D000043208D0D2071CBF11F8013B00F8013BE3
:1002E00001D30B8803806046704700BF082A13D3F0
:1002F0008B078DD010F003038AD0C3F10403D21A08
:10030000DB071CBF11F8013B00F8013B80D331F83B
:10031000023B20F8023B7BE7043AD9D3013A11F8BB
:10032000013B00F8013BF9D20B7803704B78437026
:100330008B788370604670470348044B834202D039
:10034000034B03B11847704714000020140000202D
:10035000000000000548064B1B1AD90F01EBA30152
:10036000491002D0034B03B1184770471400002016
:10037000140000200000000010B5064C237843B99B
:10038000FFF7DAFF044B13B10448AFF300800123F9
:10039000237010BD1400002000000000B0560008BB
:1003A00008B5054B1BB105490548AFF30080BDE812
:1003B0000840FFF7CFBF00BF00000000180000207A
:1003C000B0560008830730B547D0541E002A3ED0EF
:1003D000CAB2034601E0013C39D303F8012B9D0763
:1003E000F9D1032C2CD9CDB205EB05250F2C05EB4B
:1003F000054535D9A4F1100222F00F0C03F1100EBF
:10040000E6444FEA121C1A46156055609560D560A7
:1004100010327245F8D10CF1010214F00C0F03EB0D
:10042000021204F00F0C13D0ACF1040323F0030309
:100430000433134442F8045B9A42FBD10CF00304EA
:100440002CB1C9B21C4403F8011B9C42FBD130BD46
:1004500064461346002CF4D1F9E703461446C0E77E
:100460001A46A446E0E700BF70B50F4B0F4DAB42F4
:10047000A3EB050607D0B610002455F8043B013461
:100480009847A642F9D805F013F9094D094B5E1BB0
:10049000AB424FEAA60606D0002455F8043B0134CF
:1004A0009847A642F9D870BD2C5700082C57000871
:1004B0002C57000834570008704700BF704700BF32
:1004C000024B13B1024800F005B87047000000006D
:1004D000E1040008002301461A46184600F014B84B
:1004E00038B5074D074C2C1BA41005D0013C55F81E
:1004F000043D9847002CF9D1BDE8384005F0DEB83E
:1005000038570008345700082DE9F8431B4D0646BC
:10051000286898460F469146FFF7CEFF184B1C6897
:100520001CB3286865681F2D22DC4EB96B1C023590
:10053000636044F82570FFF7C1FF0020BDE8F88331
:1005400004EB85010123C1F88890D4F88821AB40E1
:100550001A43022EC4F88821C1F80881E6D1D4F8E4
:100560008C211A43C4F88C21E0E7064C1C60D8E7C4
:10057000FFF7A4FF4FF0FF30E0E700BF00000020CE
:10058000340000203800002080B483B000AF7860D1
:100590007B6803F108027B685A607B684FF0FF328A
:1005A0009A607B6803F108027B68DA607B6803F17C
:1005B00008027B681A617B6800221A6000BF0C3752
:1005C000BD465DF8047B704780B483B000AF7860AF
:1005D0007B6800221A6100BF0C37BD465DF8047BC2
:1005E000704780B485B000AF786039607B685B6825
:1005F000FB603B68FA685A60FB689A683B689A60DF
:10060000FB689B683A685A60FB683A689A603B6886
:100610007A681A617B681B685A1C7B681A6000BF85
:100620001437BD465DF8047B704780B485B000AFD9
:10063000786039603B681B68BB60BB68B3F1FF3F03
:1006400003D17B681B69FB600CE07B680833FB60AF
:1006500002E0FB685B68FB60FB685B681B68BA686C
:100660009A42F6D2FB685A683B685A603B685B68FE
:100670003A689A603B68FA689A60FB683A685A6020
:100680003B687A681A617B681B685A1C7B681A6031
:1006900000BF1437BD465DF8047B704780B485B059
:1006A00000AF78607B681B69FB607B685B687A6879
:1006B00092689A607B689B687A6852685A60FB68A7
:1006C0005B687A689A4203D17B689A68FB685A60D3
:1006D0007B6800221A61FB681B685A1EFB681A605F
:1006E000FB681B6818461437BD465DF8047B7047ED
:1006F00080B584B000AF786039607B68FB60FB68D0
:10070000002B0BD14FF0500383F31188BFF36F8F91
:10071000BFF34F8FBB6000BF00BFFDE702F07CF866
:10072000FB681A68FB68DB6BF968096C01FB03F373
:100730001A44FB689A60FB6800229A63FB681A6897
:10074000FB685A60FB681A68FB68DB6B013BF96861
:10075000096C01FB03F31A44FB68DA60FB68FF22B3
:1007600083F84420FB68FF2283F845203B68002B78
:1007700014D1FB681B69002B1AD0FB681033184694
:1007800001F01AF90346002B12D00D4B4FF08052A6
:100790001A60BFF34F8FBFF36F8F09E0FB68103310
:1007A0001846FFF7F1FEFB6824331846FFF7ECFE0E
:1007B00002F064F8012318461037BD4680BD00BF23
:1007C00004ED00E080B58EB002AFF860B9607A60E9
:1007D0003B60FB68002B0BD14FF0500383F3118873
:1007E000BFF36F8FBFF34F8FBB6200BF00BFFDE74A
:1007F0003B68002B0BD14FF0500383F31188BFF3FC
:100800006F8FBFF34F8F7B6200BF00BFFDE77B6838
:10081000002B02D0BB68002B01D0012300E0002395
:10082000002B0BD14FF0500383F31188BFF36F8F70
:10083000BFF34F8F3B6200BF00BFFDE77B68002B1B
:1008400002D1BB68002B01D1012300E00023002B63
:100850000BD14FF0500383F31188BFF36F8FBFF3B9
:100860004F8FFB6100BF00BFFDE750237B617B69B9
:10087000502B0BD04FF0500383F31188BFF36F8FD1
:10088000BFF34F8FBB6100BF00BFFDE77B693B68D3
:10089000FB62FB6A002B0DD0FB6A012283F8462025
:1008A00097F83820FB6A009313467A68B968F868AD
:1008B00000F005F8FB6A18463037BD4680BD80B5AC
:1008C00084B000AFF860B9607A60FB70BB68002B41
:1008D00003D1BB69BA691A6002E0BB697A681A6021
:1008E000BB69FA68DA63BB69BA681A640121B8693E
:1008F000FFF7FEFEBB69FA7883F84C2000BF103783
:10090000BD4680BD80B58EB000AFF860B9607A603A
:100910003B6000237B63FB683B633B6B002B0BD18D
:100920004FF0500383F31188BFF36F8FBFF34F8FE6
:10093000BB6200BF00BFFDE7BB68002B03D13B6B70
:100940001B6C002B01D1012300E00023002B0BD1F5
:100950004FF0500383F31188BFF36F8FBFF34F8FB6
:100960007B6200BF00BFFDE73B68022B03D13B6BFE
:10097000DB6B012B01D1012300E00023002B0BD105
:100980004FF0500383F31188BFF36F8FBFF34F8F86
:100990003B6200BF00BFFDE701F0CEF90346002B2C
:1009A00002D17B68002B01D1012300E00023002B42
:1009B0000BD14FF0500383F31188BFF36F8FBFF358
:1009C0004F8FFB6100BF00BFFDE701F025FF3B6BD0
:1009D0009A6B3B6BDB6B9A4202D33B68022B29D1AB
:1009E0003A68B968386B00F00FFAF8623B6B5B6AE3
:1009F000002B10D03B6B2433184600F0DDFF03467C
:100A0000002B13D03F4B4FF080521A60BFF34F8F33
:100A1000BFF36F8F0AE0FB6A002B07D0394B4FF012
:100A200080521A60BFF34F8FBFF36F8F01F026FF24
:100A3000012363E07B68002B03D101F01FFF00233B
:100A40005CE07B6B002B06D107F11403184601F024
:100A500017F801237B6301F011FF00F087FD01F01F
:100A6000DBFE3B6B93F844305BB2B3F1FF3F03D145
:100A70003B6B002283F844203B6B93F845305BB21C
:100A8000B3F1FF3F03D13B6B002283F8452001F017
:100A9000F5FE3A1D07F114031146184601F006F859
:100AA0000346002B24D1386B00F0A6FA0346002B36
:100AB00018D03B6B10337A681146184600F02AFFB5
:100AC000386B00F031FA00F05FFD0346002B7FF435
:100AD0007CAF0C4B4FF080521A60BFF34F8FBFF3C7
:100AE0006F8F72E7386B00F01FFA00F04DFD6CE776
:100AF000386B00F019FA00F047FD0023184638372C
:100B0000BD4680BD04ED00E080B590B000AFF86058
:100B1000B9607A603B60FB68BB63BB6B002B0BD199
:100B20004FF0500383F31188BFF36F8FBFF34F8FE4
:100B3000BB6200BF00BFFDE7BB68002B03D1BB6BEE
:100B40001B6C002B01D1012300E00023002B0BD1F3
:100B50004FF0500383F31188BFF36F8FBFF34F8FB4
:100B60007B6200BF00BFFDE73B68022B03D1BB6B7C
:100B7000DB6B012B01D1012300E00023002B0BD103
:100B80004FF0500383F31188BFF36F8FBFF34F8F84
:100B90003B6200BF00BFFDE701F01EFFEFF31182D3
:100BA0004FF0500383F31188BFF36F8FBFF34F8F64
:100BB000FA61BB61FB697B63BB6B9A6BBB6BDB6BE5
:100BC0009A4202D33B68022B2FD1BB6B93F845307E
:100BD00087F83330BB6B9B6BFB623A68B968B86BC4
:100BE00000F012F997F93330B3F1FF3F12D1BB6B2C
:100BF0005B6A002B16D0BB6B2433184600F0DCFE7A
:100C00000346002B0ED07B68002B0BD07B680122A3
:100C10001A6007E097F833300133DBB25AB2BB6B8E
:100C200083F845200123FB6301E00023FB637B6B1A
:100C30007B617B6983F3118800BFFB6B18464037EB
:100C4000BD4680BD80B58CB000AFF860B9607A60F9
:100C50000023FB62FB68BB62BB6A002B0BD14FF029
:100C6000500383F31188BFF36F8FBFF34F8F3B6245
:100C700000BF00BFFDE7BB68002B03D1BB6A1B6C44
:100C8000002B01D1012300E00023002B0BD14FF0FA
:100C9000500383F31188BFF36F8FBFF34F8FFB6156
:100CA00000BF00BFFDE701F047F80346002B02D16B
:100CB0007B68002B01D1012300E00023002B0BD126
:100CC0004FF0500383F31188BFF36F8FBFF34F8F43
:100CD000BB6100BF00BFFDE701F09EFDBB6A9B6BDF
:100CE0007B627B6A002B1FD0B968B86A00F0F6F807
:100CF0007B6A5A1EBB6A9A63BB6A1B69002B0FD0C2
:100D0000BB6A1033184600F057FE0346002B07D08D
:100D10003C4B4FF080521A60BFF34F8FBFF36F8F81
:100D200001F0ACFD012369E07B68002B03D101F0E9
:100D3000A5FD002362E0FB6A002B06D107F110033A
:100D4000184600F09DFE0123FB6201F097FD00F0C4
:100D50000DFC01F061FDBB6A93F844305BB2B3F166
:100D6000FF3F03D1BB6A002283F84420BB6A93F89B
:100D700045305BB2B3F1FF3F03D1BB6A002283F879
:100D8000452001F07BFD3A1D07F11003114618467E
:100D900000F08CFE0346002B23D1B86A00F016F950
:100DA0000346002B17D0BB6A24337A6811461846D5
:100DB00000F0B0FDB86A00F0B7F800F0E5FB0346BC
:100DC000002B89D10F4B4FF080521A60BFF34F8F29
:100DD000BFF36F8F80E7B86A00F0A6F800F0D4FB8D
:100DE0007AE7B86A00F0A0F800F0CEFBB86A00F02D
:100DF000EDF80346002B3FF46FAF00231846303761
:100E0000BD4680BD04ED00E080B586B000AFF8605F
:100E1000B9607A6000237B61FB689B6B3B61FB6878
:100E20001B6C002B0DD1FB681B68002B4DD1FB68A0
:100E30009B68184600F09EFF7861FB6800229A606C
:100E400043E07B68002B19D1FB685868FB681B6C7A
:100E50001A46B968FFF7D6F9FB685A68FB681B6C3D
:100E60001A44FB685A60FB685A68FB689B689A42A0
:100E70002BD3FB681A68FB685A6026E0FB68D868C9
:100E8000FB681B6C1A46B968FFF7BCF9FB68DA68A7
:100E9000FB681B6C5B421A44FB68DA60FB68DA682B
:100EA000FB681B689A4207D2FB689A68FB681B6C58
:100EB0005B421A44FB68DA607B68022B05D13B6910
:100EC000002B02D03B69013B3B613B695A1CFB682C
:100ED0009A637B6918461837BD4680BD80B582B0DD
:100EE00000AF786039607B681B6C002B18D07B6882
:100EF000DA687B681B6C1A447B68DA607B68DA68A6
:100F00007B689B689A4203D37B681A687B68DA60C7
:100F10007B68D9687B681B6C1A463868FFF772F9E2
:100F200000BF0837BD4680BD80B584B000AF786093
:100F300001F072FC7B6893F84530FB7311E07B682D
:100F40005B6A002B12D07B682433184600F034FD16
:100F50000346002B01D000F00DFEFB7B013BDBB212
:100F6000FB7397F90F30002BE9DC00E000BF7B68D2
:100F7000FF2283F8452001F081FC01F04DFC7B68E5
:100F800093F84430BB7311E07B681B69002B12D0CF
:100F90007B681033184600F00FFD0346002B01D08C
:100FA00000F0E8FDBB7B013BDBB2BB7397F90E3071
:100FB000002BE9DC00E000BF7B68FF2283F84420BF
:100FC00001F05CFC00BF1037BD4680BD80B584B029
:100FD00000AF786001F020FC7B689B6B002B02D196
:100FE0000123FB6001E00023FB6001F047FCFB688C
:100FF00018461037BD4680BD80B584B000AF78601C
:1010000001F00AFC7B689A6B7B68DB6B9A4202D129
:101010000123FB6001E00023FB6001F02FFCFB6873
:1010200018461037BD4680BD80B485B000AF7860EB
:1010300039600023FB6014E00F4AFB6852F833303C
:10104000002B0BD10C49FB683A6841F833200A4A5F
:10105000FB68DB0013447A685A6006E0FB680133E2
:10106000FB60FB68072BE7D900BF00BF1437BD4604
:101070005DF8047B704700BFC801002080B586B0D2
:1010800000AFF860B9607A60FB687B6101F0C4FB77
:101090007B6993F844305BB2B3F1FF3F03D17B69C6
:1010A000002283F844207B6993F845305BB2B3F1AA
:1010B000FF3F03D17B69002283F8452001F0DEFB6E
:1010C0007B699B6B002B06D17B6924337A68B968F6
:1010D000184600F045FC7869FFF726FF00BF183777
:1010E000BD4680BD80B58EB004AFF860B9607A604F
:1010F0003B607B6B002B0BD14FF0500383F31188C7
:10110000BFF36F8FBFF34F8F3B6200BF00BFFDE7A0
:10111000BB6B002B0BD14FF0500383F31188BFF34F
:101120006F8FBFF34F8FFB6100BF00BFFDE75C23F4
:101130003B613B695C2B0BD04FF0500383F311886C
:10114000BFF36F8FBFF34F8FBB6100BF00BFFDE7E1
:101150003B69BB6B002B1ED07B6B002B1BD0BB6B8A
:101160007B627B6A7A6B1A637B6A022283F859205E
:10117000002303937B6A029307F1140301933B6BF3
:1011800000933B687A68B968F86800F050F8786AAC
:1011900000F0DEF801E000237B617B691846283708
:1011A000BD4680BD80B58CB004AFF860B9603B60CF
:1011B0001346FB80FB889B00184601F04FFC7861CA
:1011C0007B69002B0ED05C2001F048FCF861FB69C4
:1011D000002B03D0FB697A691A6305E0786901F096
:1011E0000BFD01E00023FB61FB69002B17D0FB69BD
:1011F000002283F85920FA8800230393FB690293A5
:10120000FB6A0193BB6A00933B68B968F86800F019
:101210000EF8F86900F09CF80123BB6102E04FF082
:10122000FF33BB61BB6918462037BD4680BD80B522
:1012300088B000AFF860B9607A603B603B6B186BB8
:101240007B689B001A46A521FFF7BCF83B6B1A6B25
:101250007B6803F18043013B9B001344BB61BB6986
:1012600023F00703BB61BB6903F00703002B0BD01E
:101270004FF0500383F31188BFF36F8FBFF34F8F8D
:101280007B6100BF00BFFDE7BB68002B1FD00023C0
:10129000FB6112E0BA68FB69134419783A6BFB6989
:1012A000134434330A461A70BA68FB6913441B7836
:1012B000002B06D0FB690133FB61FB690F2BE9D9D9
:1012C00000E000BF3B6B002283F8432003E03B6B50
:1012D000002283F83420BB6A372B01D93723BB6245
:1012E0003B6BBA6ADA623B6BBA6ADA643B6B002228
:1012F0001A653B6B04331846FFF766F93B6B1833EE
:101300001846FFF761F93B6B3A6B1A61BB6AC3F190
:1013100038023B6B9A613B6B3A6B5A623B6B002223
:101320005A653B6B002283F858203A68F968B8691F
:1013300001F03EF902463B6B1A60FB6A002B02D0BB
:10134000FB6A3A6B1A6000BF2037BD4680BD0000C3
:1013500080B582B000AF786001F05EFA2D4B1B685B
:1013600001332C4A13602C4B1B68002B09D12A4AED
:101370007B681360274B1B68012B10D100F01EFC0B
:101380000DE0264B1B68002B09D1234B1B68DA6A42
:101390007B68DB6A9A4202D81F4A7B681360204B45
:1013A0001B6801331E4A13601D4B1A687B685A6420
:1013B0007B68DA6A1B4B1B689A4203D97B68DB6A3D
:1013C000184A13607B68DA6A13469B0013449B003B
:1013D000154A1A447B68043319461046FFF701F991
:1013E00001F04CFA0D4B1B68002B0ED00A4B1B680A
:1013F000DA6A7B68DB6A9A4207D20C4B4FF0805264
:101400001A60BFF34F8FBFF36F8F00BF0837BD4621
:1014100080BD00BFDC06002008020020E806002096
:10142000F8060020E40600200C02002004ED00E095
:1014300080B584B000AF78600023FB607B68002B30
:1014400018D0144B1B68002B0BD04FF0500383F3C4
:101450001188BFF36F8FBFF34F8FBB6000BF00BF1A
:10146000FDE700F083F80021786800F0F3FC00F05D
:101470008BF8F860FB68002B07D1074B4FF08052C8
:101480001A60BFF34F8FBFF36F8F00BF1037BD4699
:1014900080BD00BF0407002004ED00E080B58AB0E5
:1014A00004AF0023BB6000237B603A46391D07F17F
:1014B0000803184601F0FCFD39687B68BA6802929F
:1014C00001930023009300230A4622492248FFF794
:1014D00009FE0346214A1360204B1B68002B02D0F3
:1014E00001237B6101E000237B617B69012B02D139
:1014F00000F004FD78617B69012B16D14FF0500399
:1015000083F31188BFF36F8FBFF34F8F3B6100BF31
:10151000134B4FF0FF321A60124B01221A60124B2C
:1015200000221A6001F0D4F80FE07B69B3F1FF3FAD
:101530000BD14FF0500383F31188BFF36F8FBFF3CC
:101540004F8FFB6000BF00BFFDE700BF1837BD46EF
:1015500080BD00BFC85600088D1B00080007002092
:10156000FC060020E8060020E006002080B400AF62
:10157000044B1B680133034A136000BFBD465DF88E
:10158000047B70470407002080B584B000AF0023BF
:10159000FB600023BB60424B1B68002B0BD14FF05C
:1015A000500383F31188BFF36F8FBFF34F8F3B60FE
:1015B00000BF00BFFDE701F02FF9394B1B68013B6D
:1015C000374A1360364B1B68002B62D1354B1B68C2
:1015D000002B5ED02FE0344BDB68DB68FB60FB68E0
:1015E00018331846FFF75AF8FB6804331846FFF71C
:1015F00055F8FB68DA6A2D4B1B689A4203D9FB68E1
:10160000DB6A2A4A1360FB68DA6A13469B001344BC
:101610009B00274A1A44FB68043319461046FEF71C
:10162000E0FFFB68DA6A234B1B68DB6A9A4202D34D
:10163000214B01221A601C4B1B68002BCBD1FB688D
:10164000002B01D000F058FB1C4B1B687B607B68B3
:10165000002B10D000F046F80346002B02D0164BAA
:1016600001221A607B68013B7B607B68002BF1D113
:10167000124B00221A60104B1B68002B09D001236B
:10168000BB600F4B4FF080521A60BFF34F8FBFF318
:101690006F8F01F0F3F8BB6818461037BD4680BD68
:1016A00004070020DC0600209C060020E406002041
:1016B0000C02002008020020F0060020EC060020AA
:1016C00004ED00E080B483B000AF054B1B687B6085
:1016D0007B6818460C37BD465DF8047B704700BF39
:1016E000E006002080B586B000AF00237B614F4B41
:1016F0001B68002B40F090804D4B1B6801333B6111
:101700004B4A3B6913603B69002B21D1494B1B6855
:101710001B68002B0BD04FF0500383F31188BFF3ED
:101720006F8FBFF34F8F3B6000BF00BFFDE7414BA2
:101730001B68FB60404B1B683E4A13603E4AFB68D7
:1017400013603E4B1B6801333C4A136000F0D4FA2F
:101750003B4B1B683A699A4249D3364B1B681B685E
:10176000002B04D1364B4FF0FF321A603FE0314B73
:101770001B68DB68DB68BB60BB685B687B603A69E1
:101780007B689A4203D22E4A7B6813602FE0BB68C5
:1017900004331846FEF782FFBB689B6A002B04D017
:1017A000BB6818331846FEF779FFBB68DA6A254B29
:1017B0001B689A4203D9BB68DB6A224A1360BB6884
:1017C000DA6A13469B0013449B001F4A1A44BB6805
:1017D000043319461046FEF704FFBB68DA6A1B4B58
:1017E0001B68DB6A9A42B8D301237B61B5E7174BCC
:1017F0001B68DA6A144913469B0013449B000B4490
:101800001B68012B01D901237B61114B1B68002B45
:1018100007D001237B6104E00E4B1B6801330D4AA6
:1018200013607B6918461837BD4680BD0407002049
:10183000E00600209406002098060020F406002010
:10184000FC060020E40600200C0200200802002014
:10185000F0060020EC06002080B485B000AF284BD5
:101860001B68002B03D0274B01221A6042E0254B56
:1018700000221A60244B1B68FB6011E0FB68002B00
:101880000BD14FF0500383F31188BFF36F8FBFF379
:101890004F8F7B6000BF00BFFDE7FB68013BFB6033
:1018A0001A49FA6813469B0013449B000B441B68BB
:1018B000002BE3D0FA6813469B0013449B00134AA5
:1018C0001344BB60BB685B685A68BB685A60BB68FE
:1018D0005A68BB6808339A4204D1BB685B685A688F
:1018E000BB685A60BB685B68DB68094A1360064ADC
:1018F000FB68136000BF1437BD465DF8047B70477A
:1019000004070020F0060020E40600200C0200205E
:101910000802002080B584B000AF786039607B6831
:10192000002B0BD14FF0500383F31188BFF36F8F5F
:10193000BFF34F8FFB6000BF00BFFDE7074B1B6885
:10194000183319467868FEF770FE0121386800F0F8
:1019500081FA00BF1037BD4680BD00BF08020020DD
:1019600080B586B000AFF860B9607A60FB68002B84
:101970000BD14FF0500383F31188BFF36F8FBFF388
:101980004F8F7B6100BF00BFFDE70A4B1B68183318
:101990001946F868FEF725FE7B68002B02D04FF051
:1019A000FF33BB607968B86800F054FA00BF18379D
:1019B000BD4680BD0802002080B586B000AF7860CB
:1019C0007B68DB68DB683B613B69002B0BD14FF028
:1019D000500383F31188BFF36F8FBFF34F8FFB600A
:1019E00000BF00BFFDE73B6918331846FEF756FEFF
:1019F0001D4B1B68002B1DD13B6904331846FEF7B5
:101A00004DFE3B69DA6A194B1B689A4203D93B6960
:101A1000DB6A164A13603B69DA6A13469B0013447B
:101A20009B00134A1A443B69043319461046FEF7DB
:101A3000D8FD05E03B69183319460E48FEF7D1FD85
:101A40003B69DA6A0C4B1B68DB6A9A4205D90123B1
:101A50007B610A4B01221A6001E000237B617B69F4
:101A600018461837BD4680BD04070020E406002054
:101A70000C0200209C06002008020020F006002036
:101A800080B483B000AF7860064B1A687B681A6038
:101A9000054B1A687B685A6000BF0C37BD465DF87D
:101AA000047B7047F4060020E006002080B588B073
:101AB00000AF786039607B68002B0BD14FF050038A
:101AC00083F31188BFF36F8FBFF34F8F3B6100BF6C
:101AD00000BFFDE73B68002B0BD14FF0500383F3B1
:101AE0001188BFF36F8FBFF34F8FFB6000BF00BF44
:101AF000FDE700F091FE1D4B1B68BB617B685B68D6
:101B0000BA69D31A7B613B681B68B3F1FF3F02D10E
:101B10000023FB6123E07B681A68154B1B689A421F
:101B200007D07B685B68BA699A4202D30123FB61E4
:101B300015E03B681B687A699A420BD23B681A68C9
:101B40007B69D21A3B681A607868FFF799FF002317
:101B5000FB6104E03B6800221A600123FB6100F096
:101B60008DFEFB6918462037BD4680BDE00600208B
:101B7000F406002080B400AF034B01221A6000BFBE
:101B8000BD465DF8047B7047F006002080B582B04A
:101B900000AF786000F052F8064B1B68012BF9D9B2
:101BA000054B4FF080521A60BFF34F8FBFF36F8F1A
:101BB000F0E700BF0C02002004ED00E080B582B029
:101BC00000AF00237B600CE07A6813469B0013444F
:101BD0009B00124A13441846FEF7D6FC7B6801337B
:101BE0007B607B68372BEFD90D48FEF7CDFC0D48A5
:101BF000FEF7CAFC0C48FEF7C7FC0C48FEF7C4FC15
:101C00000B48FEF7C1FC0B4B054A1A600A4B054A0C
:101C10001A6000BF0837BD4680BD00BF0C0200201F
:101C20006C060020800600209C060020B0060020E4
:101C3000C8060020940600209806002080B582B0D7
:101C400000AF19E000F0E8FD104BDB68DB687B605B
:101C50007B6804331846FEF721FD0D4B1B68013BE2
:101C60000B4A13600B4B1B68013B0A4A136000F0E0
:101C700005FE786800F010F8064B1B68002BE1D1D8
:101C800000BF00BF0837BD4680BD00BFB0060020C2
:101C9000DC060020C406002080B584B000AF786068
:101CA0007B6893F85930002B08D17B681B6B184672
:101CB00000F0A2FF786800F09FFF19E07B6893F8BE
:101CC0005930012B03D1786800F096FF10E07B6853
:101CD00093F85930022B0BD04FF0500383F3118847
:101CE000BFF36F8FBFF34F8FFB6000BF00BFFDE7F7
:101CF00000BF1037BD4680BD80B483B000AF0C4B31
:101D00001B681B68002B04D10A4B4FF0FF321A608E
:101D100008E0074B1B68DB68DB687B607B685B68FF
:101D2000044A136000BF0C37BD465DF8047B704762
:101D300094060020FC06002080B483B000AF0B4B5B
:101D40001B68002B02D101237B6008E0084B1B6855
:101D5000002B02D102237B6001E000237B607B68C3
:101D600018460C37BD465DF8047B7047E806002036
:101D70000407002080B586B000AF78607B683B61C7
:101D800000237B617B68002B58D02F4B1B683A697E
:101D90009A420BD04FF0500383F31188BFF36F8F3B
:101DA000BFF34F8FFB6000BF00BFFDE73B691B6DBA
:101DB000002B0BD14FF0500383F31188BFF36F8FCB
:101DC000BFF34F8FBB6000BF00BFFDE73B691B6DDA
:101DD0005A1E3B691A653B69DA6A3B69DB6C9A42B9
:101DE0002CD03B691B6D002B28D13B69043318466E
:101DF000FEF754FC3B69DA6C3B69DA623B69DB6AEB
:101E0000C3F138023B699A613B69DA6A0F4B1B6880
:101E10009A4203D93B69DB6A0C4A13603B69DA6A70
:101E200013469B0013449B00094A1A443B69043340
:101E300019461046FEF7D5FB01237B617B691846E6
:101E40001837BD4680BD00BF08020020E406002010
:101E50000C02002080B584B000AF78603960214B5F
:101E60001B68FB60204B1B6804331846FEF716FC0A
:101E70007B68B3F1FF3F0AD13B68002B07D01A4BB8
:101E80001B68043319461948FEF7ABFB26E0FA68D5
:101E90007B681344BB60144B1B68BA685A60BA680D
:101EA000FB689A4209D2124B1A680F4B1B68043325
:101EB00019461046FEF7B9FB10E00E4B1A680A4BA4
:101EC0001B68043319461046FEF7AFFB0A4B1B682C
:101ED000BA689A4202D2084ABB68136000BF103742
:101EE000BD4680BDE006002008020020C806002094
:101EF0009806002094060020FC06002080B58AB0D9
:101F000004AF00237B6100F013FB1D4B1B68002B0B
:101F100021D00023FB600023BB603A1D07F10801BC
:101F200007F10C03184601F0DDF87968BB68FA6820
:101F3000029201930223009300230A46114912489A
:101F4000FFF7D0F80346114A1360104B1B68002BB3
:101F500001D001237B617B69002B0BD14FF0500333
:101F600083F31188BFF36F8FBFF34F8F3B6100BFC7
:101F700000BFFDE77B6918461837BD4680BD00BF2E
:101F800038070020D0560008C92000083C07002070
:101F900080B58AB000AFF860B9607A603B6000231A
:101FA0007B62FB68002B0BD14FF0500383F3118849
:101FB000BFF36F8FBFF34F8F3B6200BF00BFFDE7E2
:101FC000194B1B68002B2AD0BB683B617B687B6187
:101FD000FB68BB61BB68052B18DCFFF7ADFE034651
:101FE000022B09D1104B186807F1100100233A6B3E
:101FF000FEF788FC786212E00B4B186807F11001BD
:1020000000230022FEF77EFC786208E0064B186889
:1020100007F1100100233A68FEF776FD78627B6ACB
:1020200018462837BD4680BD3807002080B588B0E7
:1020300002AF78603960234B1B68DB68DB687B612B
:102040007B6904331846FEF729FB7B6993F8283037
:1020500003F00403002B23D07B699A697B68D118B5
:102060007B683A68786900F0D5F80346002B20D0E9
:102070000023009300237A6800217869FFF788FF26
:1020800038613B69002B14D14FF0500383F3118862
:10209000BFF36F8FBFF34F8FFB6000BF00BFFDE743
:1020A0007B6993F8283023F00103DAB27B6983F867
:1020B00028207B691B6A7869984700BF1837BD469E
:1020C00080BD00BF3007002080B584B000AF7860CD
:1020D00007F10803184600F059F8F860BB68194684
:1020E000F86800F005F800F0D7F800BFF0E700004E
:1020F00080B584B000AF78603960FFF737FA07F138
:102100000803184600F066F8F860BB68002B30D171
:102110003B68002B0AD17A68FB689A4206D8FFF721
:1021200033FAF9687868FFF781FF24E03B68002BF9
:1021300008D0134B1B681B68002B01D1012300E062
:1021400000233B600F4B18687A68FB68D31A3A6823
:102150001946FEF793FFFFF717FA0346002B0AD143
:10216000094B4FF080521A60BFF34F8FBFF36F8F50
:1021700001E0FFF709FA00BF1037BD4680BD00BF80
:10218000340700203807002004ED00E080B485B05B
:1021900000AF78600E4B1B681B68002B01D1012239
:1021A00000E000227B681A607B681B68002B05D169
:1021B000074B1B68DB681B68FB6001E00023FB60CA
:1021C000FB6818461437BD465DF8047B704700BFB6
:1021D0003007002080B584B000AF7860FFF772FA56
:1021E000F8600B4B1B68FA689A4205D200F03AF986
:1021F0007B6801221A6002E07B6800221A60044AB0
:10220000FB681360FB6818461037BD4680BD00BFF1
:102210004007002080B586B000AFF860B9607A60F2
:102220003B6000237B61FB68BA685A60FB68FA6810
:102230001A61BA687B689A4212D87A683B68D21AE7
:10224000FB689B699A4202D301237B611BE0104B20
:102250001A68FB68043319461046FEF7E6F912E0E7
:102260007A683B689A4206D2BA683B689A4202D3BF
:1022700001237B6107E0074B1A68FB6804331946AA
:102280001046FEF7D2F97B6918461837BD4680BD67
:10229000340700203007002080B58EB002AFCEE0BA
:1022A0007B68002B19DA3B1D0433FB62FB6A002BB1
:1022B0000BD14FF0500383F31188BFF36F8FBFF33F
:1022C0004F8FFB6100BF00BFFDE7FB6A1B68FA6A26
:1022D0005068FA6A9268114698477B68002BC0F2F2
:1022E000AE80FB68BB62BB6A5B69002B04D0BB6A33
:1022F00004331846FEF7D2F93B461846FFF76AFF4B
:1023000078627B68092B00F2978001A252F823F0D3
:10231000392300083923000839230008AF230008B7
:10232000C32300080F2400083923000839230008BC
:10233000AF230008C3230008BB6A93F8283043F09A
:102340000103DAB2BB6A83F82820BA68BB6A9B69CA
:10235000D118BB687A6AB86AFFF75CFF0346002BA6
:102360006CD0BB6A1B6AB86A9847BB6A93F828307E
:1023700003F00403002B61D0BA68BB6A9B691A445E
:102380000023009300230021B86AFFF701FE3862A2
:102390003B6A002B52D14FF0500383F31188BFF3F7
:1023A0006F8FBFF34F8FBB6100BF00BFFDE7BB6AFC
:1023B00093F8283023F00103DAB2BB6A83F82820AF
:1023C0003DE0BB6A93F8283043F00103DAB2BB6A00
:1023D00083F82820BA68BB6A9A61BB6A9B69002BA4
:1023E0000BD14FF0500383F31188BFF36F8FBFF30E
:1023F0004F8F7B6100BF00BFFDE7BB6A9A697B6AB4
:10240000D1187B6A7A6AB86AFFF704FF17E0BB6AE3
:1024100093F8283003F00203002B03D1B86A00F0D0
:10242000EBFB0CE0BB6A93F8283023F00103DAB22F
:10243000BB6A83F8282002E000BF00E000BF084B21
:102440001B68391D00221846FEF7FCFB0346002BD3
:102450007FF426AF00BF00BF3037BD4680BD00BF50
:102460003807002080B588B002AF49E02E4B1B68CA
:10247000DB681B683B612C4B1B68DB68DB68FB601F
:10248000FB6804331846FEF709F9FB681B6AF86815
:102490009847FB6893F8283003F00403002B2FD0F3
:1024A000FB689B693A691344BB60BA683B699A420E
:1024B0000ED9FB68BA685A60FB68FA681A611A4B51
:1024C0001A68FB68043319461046FEF7AEF817E0A9
:1024D0000023009300233A690021F868FFF758FDB4
:1024E00078607B68002B0BD14FF0500383F3118889
:1024F000BFF36F8FBFF34F8F3B6000BF00BFFDE79F
:10250000094B1B681B68002BB0D1074B1B687B6114
:10251000064B1B68044A1360044A7B69136000BFC2
:102520001837BD4680BD00BF3007002034070020AB
:1025300080B582B002AF00F06FF9154B1B68002B1D
:1025400020D11448FEF720F81348FEF71DF8134B6E
:10255000104A1A60124B104A1A6000230093114B64
:10256000114A10210A20FEF72DF90346084A13608C
:10257000074B1B68002B05D0054B1B680B49184601
:10258000FEF752FD00F07AF900BFBD4680BD00BFE6
:1025900038070020080700201C0700203007002013
:1025A00034070020E407002044070020D856000824
:1025B00080B485B000AFF860B9607A60FB68043B16
:1025C000FB60FB684FF080721A60FB68043BFB60A5
:1025D000BB6823F00102FB681A60FB68043BFB60E8
:1025E0000C4AFB681A60FB68143BFB607A68FB6866
:1025F0001A60FB68043BFB60FB686FF002021A6024
:10260000FB68203BFB60FB6818461437BD465DF84D
:10261000047B70471926000880B485B000AF002302
:102620007B60134B1B68B3F1FF3F0BD04FF050039F
:1026300083F31188BFF36F8FBFF34F8FFB6000BF31
:1026400000BFFDE74FF0500383F31188BFF36F8F96
:10265000BFF34F8FBB6000BF00BF7B68002BFCD077
:1026600000BF00BF1437BD465DF8047B704700BF54
:102670000400002000000000000000000000000036
:10268000074B19680868B0E8F04F80F30988BFF37A
:102690006F8F4FF0000080F311887047AFF3008018
:1026A0000802002000BF00BF08480068006880F3EF
:1026B00008884FF0000080F3148862B661B6BFF35B
:1026C0004F8FBFF36F8F00DF00BF00BF08ED00E04A
:1026D00080B586B000AF474B1B68474A93420BD189
:1026E0004FF0500383F31188BFF36F8FBFF34F8F09
:1026F0003B6100BF00BFFDE73E4B1B683F4A934272
:102700000BD14FF0500383F31188BFF36F8FBFF3EA
:102710004F8FFB6000BF00BFFDE7394B7B617B69DA
:102720001B78DBB27B607B69FF221A707B691B78A8
:10273000DBB2FB70FB78DBB203F05003DAB2314B53
:102740001A70314B07221A6009E02F4B1B68013BBE
:102750002D4A1360FB78DBB25B00DBB2FB70FB78C9
:10276000DBB203F08003802BEFD0274B1B68C3F153
:102770000703042B0BD04FF0500383F31188BFF3F2
:102780006F8FBFF34F8FBB6000BF00BFFDE71E4BD5
:102790001B681B021C4A13601B4B1B6803F4E0639D
:1027A000194A13607B68DAB27B691A70174B1B6891
:1027B000164A43F470031360144B1B68134A43F02A
:1027C0007043136000F0DAF8114B00221A6000F039
:1027D000F9F8104B1B680F4A43F040431360FFF7B2
:1027E00063FFFFF739F8FFF717FF00231846183784
:1027F000BD4680BD00ED00E071C20F4170C20F41C7
:1028000000E400E0340800203808002020ED00E05B
:102810000400002034EF00E080B483B000AF4FF03C
:10282000500383F31188BFF36F8FBFF34F8F7B602B
:1028300000BF104B1B6801330E4A13600D4B1B6821
:10284000012B10D10C4B1B68DBB2002B0BD04FF0CF
:10285000500383F31188BFF36F8FBFF34F8F3B603B
:1028600000BF00BFFDE700BF0C37BD465DF8047B2D
:10287000704700BF0400002004ED00E080B483B086
:1028800000AF124B1B68002B0BD14FF0500383F3AA
:102890001188BFF36F8FBFF34F8F7B6000BF00BF06
:1028A000FDE70A4B1B68013B084A1360074B1B6896
:1028B000002B05D100233B603B6883F3118800BFE8
:1028C00000BF0C37BD465DF8047B70470400002054
:1028D000EFF30980BFF36F8F154B1A681EF0100FCE
:1028E00008BF20ED108A20E9F04F10602DE90900A3
:1028F0004FF0500080F31188BFF34F8FBFF36F8FFD
:10290000FEF7AAFF4FF0000080F3118809BC196898
:102910000868B0E8F04F1EF0100F08BFB0EC108A46
:1029200080F30988BFF36F8F704700BFAFF300805B
:102930000802002000BF00BF80B582B000AF4FF09A
:10294000500383F31188BFF36F8FBFF34F8F7B600A
:1029500000BFFEF7C7FE0346002B03D0064B4FF027
:1029600080521A6000233B603B6883F3118800BFEC
:1029700000BF0837BD4680BD04ED00E080B400AF65
:102980000B4B00221A600B4B00221A600A4B1B688B
:102990000A4AA2FB03239B09094A013B1360044B2B
:1029A00007221A6000BFBD465DF8047B704700BF78
:1029B00010E000E018E000E010000020D34D6210AD
:1029C00014E000E0DFF80C00016841F470010160E0
:1029D000704700BF88ED00E080B485B000AFEFF332
:1029E0000583FB60FB680F2B15D9184AFB6813445D
:1029F0001B78FB72164B1B78FA7A9A420BD24FF077
:102A0000500383F31188BFF36F8FBFF34F8F7B6049
:102A100000BF00BFFDE70F4B1B6803F4E0620E4BE5
:102A20001B689A420BD94FF0500383F31188BFF310
:102A30006F8FBFF34F8F3B6000BF00BFFDE700BF4C
:102A40001437BD465DF8047B704700BFF0E300E03B
:102A5000340800200CED00E03808002080B58AB072
:102A600000AF78600023FB61FEF780FD5C4B1B68C4
:102A7000002B01D100F024F95A4B1A687B681340EF
:102A8000002B40F095807B68002B1ED008227B68CD
:102A900013447B607B6803F00703002B15D07B6831
:102AA00023F0070308337B607B6803F00703002BE8
:102AB0000BD04FF0500383F31188BFF36F8FBFF338
:102AC0004F8F7B6100BF00BFFDE77B68002B6FD09D
:102AD000454B1B687A689A426AD8444B3B62434B29
:102AE0001B687B6204E07B6A3B627B6A1B687B62DB
:102AF0007B6A5B687A689A4203D97B6A1B68002B01
:102B0000F1D1374B1B687A6A9A4251D03B6A1B68F5
:102B100008221344FB617B6A1A683B6A1A607B6A6D
:102B20005A687B68D21A08235B009A4220D97A6AD5
:102B30007B681344BB61BB6903F00703002B0BD018
:102B40004FF0500383F31188BFF36F8FBFF34F8FA4
:102B50003B6100BF00BFFDE77B6A5A687B68D21A01
:102B6000BB695A607B6A7A685A60B86900F00AF9F2
:102B70001D4B1A687B6A5B68D31A1B4A13601A4B99
:102B80001A681B4B1B689A4203D2174B1B68184AE2
:102B900013607B6A5A68134B1B681A437B6A5A603E
:102BA0007B6A00221A60134B1B680133114A1360C1
:102BB000FEF7EAFCFB6903F00703002B0BD04FF094
:102BC000500383F31188BFF36F8FBFF34F8FFB6008
:102BD00000BF00BFFDE7FB6918462837BD4680BD32
:102BE0004444002058440020484400203C44002035
:102BF0004C4400205044002080B586B000AF78607F
:102C00007B687B617B68002B4FD008235B427A692D
:102C100013447B617B693B613B695A68254B1B68A8
:102C20001340002B0BD14FF0500383F31188BFF3F7
:102C30006F8FBFF34F8FFB6000BF00BFFDE73B69A5
:102C40001B68002B0BD04FF0500383F31188BFF3A8
:102C50006F8FBFF34F8FBB6000BF00BFFDE73B69C5
:102C60005A68144B1B681340002B1ED03B691B682D
:102C7000002B1AD13B695A680E4B1B68DB431A4084
:102C80003B695A60FEF772FC3B695A680A4B1B6845
:102C90001344094A1360386900F074F8074B1B6845
:102CA0000133064A1360FEF76FFC00BF1837BD46BC
:102CB00080BD00BF584400204844002054440020F8
:102CC00080B485B000AF4FF47053BB60274BFB60FE
:102CD000FB6803F00703002B0CD0FB680733FB6095
:102CE000FB6823F00703FB60BA68FB68D31A1F4A2E
:102CF0001344BB60FB687B601D4A7B6813601C4B00
:102D000000225A607B68BA681344FB600822FB68A3
:102D10009B1AFB60FB6823F00703FB60FB68154A06
:102D20001360144B1B6800225A60124B1B68002270
:102D30001A607B683B603B68FA68D21A3B685A604D
:102D40000C4B1A683B681A603B685B680A4A136060
:102D50003B685B68094A1360094B4FF000421A60F8
:102D600000BF1437BD465DF8047B70473C08002067
:102D70003C440020444400204C44002048440020AF
:102D80005844002080B485B000AF7860284BFB60C9
:102D900002E0FB681B68FB60FB681B687A689A426C
:102DA000F7D8FB68BB60FB685B68BA6813447A6855
:102DB0009A4208D1FB685A687B685B681A44FB68D2
:102DC0005A60FB687B607B68BB607B685B68BA6845
:102DD0001A44FB681B689A4218D1FB681A68154BA5
:102DE0001B689A420DD07B685A68FB681B685B6859
:102DF0001A447B685A60FB681B681A687B681A6013
:102E000008E00C4B1A687B681A6003E0FB681A68DC
:102E10007B681A60FA687B689A4202D0FB687A681D
:102E20001A6000BF1437BD465DF8047B704700BFD1
:102E30003C4400204444002080B483B000AF0346EB
:102E40003960FB7197F90730002B0ADB3B68DAB277
:102E50000C4997F907301201D2B20B4483F80023D2
:102E60000AE03B68DAB20849FB7903F00F03043B40
:102E70001201D2B20B441A7600BF0C37BD465DF882
:102E8000047B704700E100E000ED00E080B500AF9A
:102E9000054B1B68FEF750FF0346012B01D0FFF7DF
:102EA0004BFD00BF80BD00BF10E000E080B500AF6B
:102EB00000216FF00400FFF7BFFF00BF80BD0000DE
:102EC00080B483B000AFEFF305833B603B68002B19
:102ED00003D06FF005037B600CE00A4B1B68002BEE
:102EE00005D1084B01221A6000237B6002E04FF0FD
:102EF000FF337B607B6818460C37BD465DF8047B6A
:102F0000704700BF5C44002080B582B000AFEFF393
:102F100005833B603B68002B03D06FF005037B60AB
:102F200010E00B4B1B68012B09D1FFF7BFFF084BCB
:102F300002221A60FEF7B2FA00237B6002E04FF033
:102F4000FF337B607B6818460837BD4680BD00BFF5
:102F50005C44002080B58EB004AFF860B9607A6040
:102F600000233B61EFF305837B617B69002B7ED1FE
:102F7000FB68002B7BD080233B621823FB6100237E
:102F80007B624FF0FF33BB617B68002B45D07B68D1
:102F90001B68002B02D07B681B687B627B689B6987
:102FA000002B02D07B689B69FB61FB69002B08D07A
:102FB000FB69382B05D87B685B6803F00103002BA5
:102FC00001D0002354E07B685B69002B03D07B6851
:102FD0005B699B083B627B689B68002B0ED07B681B
:102FE000DB685B2B0AD97B681B69002B06D07B68EA
:102FF0005B69002B02D00123BB6110E07B689B68FA
:10300000002B0CD17B68DB68002B08D17B681B6927
:10301000002B04D10023BB6101E00023BB61BB692D
:10302000012B10D17B681B697A6892680292019328
:10303000FB690093BB683A6A796AF868FEF752F850
:1030400003463B6113E0BB69002B10D13B6A9AB287
:1030500007F110030193FB690093BB68796AF86874
:10306000FEF7A0F80346012B01D000233B613B692A
:1030700018462837BD4680BD80B584B000AF786063
:10308000EFF30583BB60BB68002B03D06FF0050333
:10309000FB6007E00023FB607B68002B02D07868B0
:1030A000FEF7C6F9FB6818461037BD4680BD000024
:1030B00080B485B000AFF860B9607A60FB68074AF9
:1030C0001A60BB68064A1A607B6880221A6000BFDB
:1030D0001437BD465DF8047B704700BF6044002094
:1030E000BC44002080B485B000AFF860B9607A605D
:1030F000FB68074A1A60BB68064A1A607B684FF48F
:1031000080721A6000BF1437BD465DF8047B7047BB
:10311000BC4600201847002080B582B000AF786020
:103120007B68002B01D1012341E07B6893F83D309F
:10313000DBB2002B06D17B68002283F83C20786844
:1031400000F039F87B68022283F83D207B681A681A
:103150007B6804331946104600F0D8F97B680122D9
:1031600083F846207B68012283F83E207B68012299
:1031700083F83F207B68012283F840207B6801228E
:1031800083F841207B68012283F842207B6801227A
:1031900083F843207B68012283F844207B68012266
:1031A00083F845207B68012283F83D2000231846E0
:1031B0000837BD4680BD80B483B000AF786000BFE3
:1031C0000C37BD465DF8047B7047000080B485B0C5
:1031D00000AF78607B6893F83D30DBB2012B01D003
:1031E00001234EE07B68022283F83D207B681B6848
:1031F000DA687B681B6842F00102DA607B681B6852
:10320000234A934222D07B681B68B3F1804F1DD0C4
:103210007B681B681F4A934218D07B681B681E4A54
:10322000934213D07B681B681C4A93420ED07B6884
:103230001B681B4A934209D07B681B68194A93425A
:1032400004D07B681B68184A934211D17B681B68C5
:103250009B6803F00703FB60FB68062B10D07B68BC
:103260001B681A687B681B6842F001021A6007E05D
:103270007B681B681A687B681B6842F001021A6051
:10328000002318461437BD465DF8047B704700BF25
:10329000000001400004004000080040000C004015
:1032A00000040140004001400018004080B582B099
:1032B00000AF78607B681B681B6903F00203022B78
:1032C00022D17B681B68DB6803F00203022B1BD151
:1032D0007B681B686FF002021A617B6801221A7713
:1032E0007B681B689B6903F00303002B03D078689D
:1032F00000F0EEF805E0786800F0E0F8786800F09B
:10330000F1F87B6800221A777B681B681B6903F061
:103310000403042B22D17B681B68DB6803F00403E1
:10332000042B1BD17B681B686FF004021A617B6859
:1033300002221A777B681B689B6903F44073002B99
:1033400003D0786800F0C4F805E0786800F0B6F8BB
:10335000786800F0C7F87B6800221A777B681B68E2
:103360001B6903F00803082B22D17B681B68DB680C
:1033700003F00803082B1BD17B681B686FF0080261
:103380001A617B6804221A777B681B68DB6903F08B
:103390000303002B03D0786800F09AF805E0786802
:1033A00000F08CF8786800F09DF87B6800221A77AE
:1033B0007B681B681B6903F01003102B22D17B680C
:1033C0001B68DB6803F01003102B1BD17B681B68A4
:1033D0006FF010021A617B6808221A777B681B68FD
:1033E000DB6903F44073002B03D0786800F070F8B9
:1033F00005E0786800F062F8786800F073F87B68A0
:1034000000221A777B681B681B6903F00103012BFC
:103410000ED17B681B68DB6803F00103012B07D129
:103420007B681B686FF001021A61786801F0BEFDCD
:103430007B681B681B6903F08003802B0ED17B68BF
:103440001B68DB6803F08003802B07D17B681B6857
:103450006FF080021A61786800F002F97B681B68DF
:103460001B6903F04003402B0ED17B681B68DB68AF
:1034700003F04003402B07D17B681B686FF04002CC
:103480001A61786800F038F87B681B681B6903F0E4
:103490002003202B0ED17B681B68DB6803F0200320
:1034A000202B07D17B681B686FF020021A617868B7
:1034B00000F0CCF800BF0837BD4680BD80B483B0B3
:1034C00000AF786000BF0C37BD465DF8047B7047E5
:1034D00080B483B000AF786000BF0C37BD465DF8A4
:1034E000047B704780B483B000AF786000BF0C37B6
:1034F000BD465DF8047B704780B483B000AF786050
:1035000000BF0C37BD465DF8047B704780B485B0C2
:1035100000AF786039607B681B68FB607B68404A5D
:10352000934213D07B68B3F1804F0FD07B683D4A44
:1035300093420BD07B683C4A934207D07B683B4A5E
:10354000934203D07B683A4A934208D1FB6823F048
:103550007003FB603B685B68FA681343FB607B6841
:103560002F4A93422BD07B68B3F1804F27D07B68E2
:103570002C4A934223D07B682B4A93421FD07B680E
:103580002A4A93421BD07B68294A934217D07B6812
:10359000284A934213D07B68274A93420FD07B6816
:1035A000264A93420BD07B68254A934207D07B681A
:1035B000244A934203D07B68234A934208D1FB6894
:1035C00023F44073FB603B68DB68FA681343FB60DD
:1035D000FB6823F080023B685B691343FB607B68F8
:1035E000FA681A603B689A687B68DA623B681A6816
:1035F0007B689A627B680A4A934203D07B680C4AD4
:10360000934203D13B681A697B681A637B68012285
:103610005A6100BF1437BD465DF8047B704700BF98
:10362000000001400004004000080040000C004081
:1036300000040140004001400044014000480140B6
:1036400000180040001C00400020004080B483B0FF
:1036500000AF786000BF0C37BD465DF8047B704753
:1036600080B483B000AF786000BF0C37BD465DF812
:10367000047B704780B582B000AF78607B68002B18
:1036800001D101233FE07B6893F83D30DBB2002B92
:1036900006D17B68002283F83C20786801F036FD73
:1036A0007B68242283F83D207B681B68DA687B688E
:1036B0001B6822F40052DA60786800F029F87B6811
:1036C0001B681A697B681B6822F490421A617B6848
:1036D0001B685A697B681B6822F02A025A617B6862
:1036E0001B68DA687B681B6842F40052DA607B680A
:1036F00000221A647B68202283F83D207B68202208
:1037000083F83E20002318460837BD4680BD0000E0
:103710002DE9B04FC0B000AFC7F8F400D7F8F430CF
:103720001B681B6923F44050D7F8F430D968D7F8E8
:10373000F4301A6840EA01031361D7F8F4309A684C
:10374000D7F8F4301B691A43D7F8F4305B691A4391
:10375000D7F8F430DB691343C7F8F830D7F8F43002
:103760001B68DB6823F4164121F00C01D7F8F43014
:103770001A68D7F8F8300B43D360D7F8F4301B68D9
:103780005B6923F44070D7F8F4309969D7F8F430C6
:103790001A6840EA01035361D7F8F4301A688F4B76
:1037A0009A4205D0D7F8F4301A688D4B9A4204D16A
:1037B00000F028FBC7F8FC0003E000F00FFBC7F89F
:1037C000FC00D7F8F430DB69B3F5004F40F00C8112
:1037D000D7F8FC300022C7F8E830C7F8EC20D7E96A
:1037E0003A4522462B469118B9655B41FB65D7E9FE
:1037F0001623214612EB0108294643EB01094FF03D
:1038000000024FF000034FEAC90343EA58734FEA3E
:10381000C80290469946234618EB0303C7F8E030E8
:103820002B4649EB0303C7F8E430D7F8F4305B6864
:103830000022C7F8D830C7F8DC20D7E936120B468B
:10384000DB183B65134642EB03037B65D7E9142382
:10385000D7E93801FCF7BCFC02460B46614BA3FBE1
:1038600002235B091C01D7F8FC300022C7F8D030D6
:10387000C7F8D420D7E9348942464B469118B96439
:103880005B41FB64D7E91223414612EB010A49462A
:1038900043EB010B4FF000024FF000034FEACB0364
:1038A00043EA5A734FEACA0292469B4643461AEBD2
:1038B0000303C7F8C8304B464BEB0303C7F8CC30C3
:1038C000D7F8F4305B680022C7F8C030C7F8C420CE
:1038D000D7E930120B46DB183B64134642EB030377
:1038E0007B64D7E91023D7E93201FCF771FC02466B
:1038F0000B4611463B4BA3FB01235B09642202FBF1
:1039000003F3CB1ADB0003F13202364BA3FB022395
:103910005B095B0003F4F8731C44D7F8FC30002209
:10392000C7F8B830C7F8BC20D7E92E8942464B46C5
:103930009118B9635B41FB63D7E90E2341465118E7
:10394000396349464B417B634FF000024FF000035F
:10395000D7E90CAB5946CB00514643EA5173514667
:10396000CA0010461946034642469B18C7F8B030B5
:103970004B460A4642EB0303C7F8B430D7F8F4309D
:103980005B680022C7F8A830C7F8AC20D7E92A1234
:103990000B46DB18BB62134642EB0303FB62D7E91D
:1039A0000A23D7E92C01FCF713FC02460B460D4B0A
:1039B000A3FB02135B09642101FB03F3D31ADB00B1
:1039C0003233084AA2FB03235B0903F00702D7F84E
:1039D000F4301B6822449A6006E100BF00100140E9
:1039E000001401401F85EB51D7F8FC300022C7F8C6
:1039F000A030C7F8A420D7E9288942464B46911841
:103A000039625B417B62D7E9082341465418494635
:103A100043EB01054FF000024FF00003EB0043EAD7
:103A20005473E20014461D464346E318C7F8983025
:103A30004B4645EB0303C7F89C30D7F8F4305B687E
:103A40000022C7F89030C7F894204FF000024FF0E2
:103A50000003D7E9244529468B00214643EA9173A8
:103A600021468A00D7E92601FCF7B2FB02460B4645
:103A7000604BA3FB02235B091C01D7F8FC3000223A
:103A8000C7F88830C7F88C20D7E9228942464B46D0
:103A90009118B9615B41FB61D7E906234146511892
:103AA000396149464B417B614FF000024FF0000302
:103AB000D7E904AB5946CB00514643EA517351460E
:103AC000CA0010461946034642469B18C7F8803084
:103AD0004B460A4642EB0303C7F88430D7F8F4306C
:103AE0005B680022BB67FA674FF000024FF00003EB
:103AF000D7E91E8949468B00414643EA9173414606
:103B00008A00D7E92001FCF763FB02460B46114609
:103B1000384BA3FB01235B09642202FB03F3CB1A9E
:103B20001B013233334AA2FB03235B0903F0F0038A
:103B30001C44D7F8FC3000223B677A67D7E91C8920
:103B400042464B469118B9605B41FB60D7E90223BE
:103B500041465118396049464B417B604FF00002A5
:103B60004FF00003D7E900AB5946CB00514643EA7A
:103B700051735146CA0010461946034642469B18E7
:103B8000BB664B460A4642EB0303FB66D7F8F430AC
:103B90005B6800223B667A664FF000024FF000033C
:103BA000D7E9188949468B00414643EA917341465B
:103BB0008A00D7E91A01FCF70BFB02460B460D4BB6
:103BC000A3FB02135B09642101FB03F3D31A1B015E
:103BD0003233084AA2FB03235B0903F00F02D7F834
:103BE000F4301B6822449A6000BF07F58077BD4619
:103BF000BDE8B08F1F85EB5180B584B000AF786011
:103C000039607B68002B01D10123CCE0684B1B6835
:103C100003F00F033A689A420CD9654B3A68D2B266
:103C20001A70634B1B6803F00F033A689A4201D085
:103C30000123B8E07B681B6803F00203002B20D04F
:103C40007B681B6803F00403002B05D0594B9B686D
:103C5000584A43F4E05393607B681B6803F0080301
:103C6000002B05D0534B9B68524A43F4604393604A
:103C7000504B9B6823F0F0027B689B684D491343CF
:103C80008B607B681B6803F00103002B44D07B68CA
:103C90005B68012B07D1474B1B6803F40033002BF3
:103CA00019D101237FE07B685B68022B03D07B681E
:103CB0005B68032B07D13F4B1B6803F00073002B9D
:103CC00009D101236FE03B4B1B6803F00203002B7B
:103CD00001D1012367E0374B9B6823F003027B6827
:103CE0005B68344913438B6001F0D0F8F8600AE058
:103CF00001F0CCF80246FB68D31A41F288329342B5
:103D000001D903234FE02B4B9B6803F00C027B6827
:103D10005B689B009A42EBD1254B1B6803F00F03B5
:103D20003A689A420CD2224B3A68D2B21A70204BAF
:103D30001B6803F00F033A689A4201D0012332E076
:103D40007B681B6803F00403002B08D0194B9B68A9
:103D500023F4E0527B68DB68164913438B607B6871
:103D60001B6803F00803002B09D0124B9B6823F457
:103D700060427B681B69DB000E4913438B6000F0D7
:103D800087F802460B4B9B681B0903F00F030A4997
:103D9000CB5C22FA03F3094A1360094B1B681846EF
:103DA00001F082FA002318461037BD4680BD00BFDF
:103DB000003C024000380240E85600081000002095
:103DC0000800002080B400AF034B1B681846BD46B6
:103DD0005DF8047B704700BF1000002080B500AF85
:103DE000FFF7F0FF0246054B9B689B0A03F00703B1
:103DF0000349CB5C22FA03F3184680BD0038024029
:103E0000F856000880B500AFFFF7DCFF0246054B0F
:103E10009B685B0B03F007030349CB5C22FA03F3B7
:103E2000184680BD00380240F856000880B483B0C0
:103E300000AF786039607B680F221A60124B9B6874
:103E400003F003027B685A600F4B9B6803F0F0029B
:103E50007B689A600C4B9B6803F4E0527B68DA60E5
:103E6000094B9B68DB0803F4E0527B681A61074B3F
:103E70001B6803F00F023B681A6000BF0C37BD4699
:103E80005DF8047B704700BF00380240003C0240F0
:103E90002DE9B04FAEB000AF0023C7F8AC3000231F
:103EA000C7F8B4300023C7F8A8300023C7F8A430FF
:103EB0000023C7F8B030CB4B9B6803F00C030C2BEE
:103EC00000F2068201A252F823F000BF013F000871
:103ED000D1420008D1420008D1420008093F000841
:103EE000D1420008D1420008D1420008113F000829
:103EF000D1420008D1420008D14200080141000827
:103F0000B94BC7F8B030E7E1B84BC7F8B030E3E1E0
:103F1000B44B5B6803F03F03C7F8AC30B14B5B6850
:103F200003F48003002B71D0AE4B5B689B09002229
:103F3000C7F89830C7F89C20D7F89830C3F3080327
:103F4000C7F890300023C7F89430D7E924452246BB
:103F50002B464FF000004FF00001590141EAD261B9
:103F6000500102460B462146511A3964294663EB3B
:103F700001037B644FF000024FF00003D7E9108982
:103F800049468B01414643EA916341468A014146D5
:103F9000511AB963494663EB0103FB634FF000021A
:103FA0004FF00003D7E90E894946CB00414643EA6A
:103FB00051734146CA0010461946034622469B18D3
:103FC0003B632B460A4642EB03037B634FF0000240
:103FD0004FF00003D7E90C4529464B02214643EA3E
:103FE000D15321464A0210461946D7F8AC30002278
:103FF000C7F88830C7F88C20D7E92223FCF7E8F807
:1040000002460B461346C7F8B43067E0754B5B6851
:104010009B090022C7F88030C7F88420D7F8803089
:10402000C3F30803BB670023FB67D7E91E4522469D
:104030002B464FF000004FF00001590141EAD261D8
:10404000500102460B462146511AB962294663EBDC
:104050000103FB624FF000024FF00003D7E90A8929
:1040600049468B01414643EA916341468A014146F4
:10407000B2EB010A494663EB010B4FF000024FF02F
:1040800000034FEACB0343EA5A734FEACA0292464F
:104090009B4623461AEB03033B622B464BEB030381
:1040A0007B624FF000024FF00003D7E90845294634
:1040B0008B02214643EA915321468A021046194653
:1040C000D7F8AC3000223B677A67D7E91C23FCF7AE
:1040D0007FF802460B461346C7F8B430414B5B6885
:1040E0001B0C03F0030301335B00C7F8A830D7F8BB
:1040F000B420D7F8A830B2FBF3F3C7F8B030EBE048
:10410000384B5B6803F03F03C7F8AC30354B5B6856
:1041100003F48003002B6BD0324B5B689B090022B9
:10412000BB66FA66BB6EC3F308033B6600237B667F
:10413000D7E9184522462B464FF000004FF000010A
:10414000590141EAD261500102460B462146511AFB
:10415000B961294663EB0103FB614FF000024FF0A8
:104160000003D7E906AB59468B01514643EA9163F8
:1041700051468A015146B2EB0108594663EB0109E9
:104180004FF000024FF000034FEAC90343EA5873AF
:104190004FEAC80290469946234618EB03033B6159
:1041A0002B4649EB03037B614FF000024FF0000305
:1041B000D7E9044529464B02214643EAD15321461B
:1041C0004A0210461946D7F8AC300022BB65FA65A2
:1041D000D7E91623FBF7FCFF02460B461346C7F848
:1041E000B43065E0003802400024F40000127A0088
:1041F0003D4B5B689B09002218461146C0F308033B
:104200003B6500237B65D7E9148942464B464FF056
:1042100000004FF00001590141EAD261500102460D
:104220000B464146511AB960494663EB0103FB60F6
:104230004FF000024FF00003D7E902AB59468B0163
:10424000514643EA916351468A015146541A5946F0
:1042500063EB01054FF000024FF00003EB0043EA6F
:104260005473E20014461D464346E3183B604B4638
:1042700045EB03037B604FF000024FF00003D7E9EA
:10428000004529468B02214643EA915321468A0282
:1042900010461946D7F8AC300022BB64FA64D7E95F
:1042A0001223FBF795FF02460B461346C7F8B430BE
:1042B0000D4B5B681B0F03F00703C7F8A430D7F85A
:1042C000B420D7F8A430B2FBF3F3C7F8B03003E062
:1042D000064BC7F8B03000BFD7F8B0301846B83733
:1042E000BD46BDE8B08F00BF003802400024F40096
:1042F00080B586B000AF78607B68002B01D10123C8
:104300008DE27B681B6803F00103002B00F08380C3
:10431000944B9B6803F00C03042B19D0914B9B68C2
:1043200003F00C03082B06D18E4B5B6803F480036B
:10433000B3F5800F0CD08B4B9B6803F00C030C2B58
:1043400012D1884B5B6803F48003B3F5800F0BD167
:10435000844B1B6803F40033002B5BD07B685B68E5
:10436000002B57D101235AE27B685B68B3F5803F8D
:1043700006D17C4B1B687B4A43F4803313601DE0FD
:104380007B685B68B3F5A02F0CD1764B1B68754A30
:1043900043F480231360734B1B68724A43F48033E9
:1043A00013600BE06F4B1B686E4A23F4803313607D
:1043B0006C4B1B686B4A23F4802313607B685B683B
:1043C000002B13D000F062FD386108E000F05EFDC4
:1043D00002463B69D31A642B01D903231FE2614BC8
:1043E0001B6803F40033002BF0D014E000F04EFD06
:1043F000386108E000F04AFD02463B69D31A642B9D
:1044000001D903230BE2574B1B6803F40033002B45
:10441000F0D100E000BF7B681B6803F00203002BB3
:104420006FD0504B9B6803F00C03002B17D04D4B03
:104430009B6803F00C03082B05D14A4B5B6803F41F
:104440008003002B0BD0474B9B6803F00C030C2B15
:104450001CD1444B5B6803F48003002B16D1414B05
:104460001B6803F00203002B05D07B68DB68012B7F
:1044700001D00123D3E13B4B1B6823F0F8027B689A
:104480001B69DB00374913430B603AE07B68DB684C
:10449000002B20D0344B01221A6000F0F7FC386169
:1044A00008E000F0F3FC02463B69D31A022B01D965
:1044B0000323B4E12B4B1B6803F00203002BF0D065
:1044C000284B1B6823F0F8027B681B69DB00254939
:1044D00013430B6015E0244B00221A6000F0D6FC59
:1044E000386108E000F0D2FC02463B69D31A022B87
:1044F00001D9032393E11B4B1B6803F00203002B3C
:10450000F0D17B681B6803F00803002B36D07B6872
:104510005B69002B16D0154B01221A6000F0B6FC27
:10452000386108E000F0B2FC02463B69D31A022B66
:1045300001D9032373E10B4B5B6F03F00203002BE4
:10454000F0D01BE0094B00221A6000F09FFC38619C
:104550000EE000F09BFC02463B69D31A022B07D900
:1045600003235CE10038024000004742800E4742CE
:104570008A4B5B6F03F00203002BEAD17B681B6858
:1045800003F00403002B00F097800023FB75834B9E
:104590001B6C03F08053002B0FD10023BB607F4BBB
:1045A0001B6C7E4A43F0805313647C4B1B6C03F0FE
:1045B0008053BB60BB680123FB75794B1B6803F418
:1045C0008073002B18D1764B1B68754A43F48073B7
:1045D000136000F05BFC386108E000F057FC024615
:1045E0003B69D31A022B01D9032318E16C4B1B68DA
:1045F00003F48073002BF0D07B689B68012B06D1FD
:10460000664B1B6F654A43F0010313671CE07B6830
:104610009B68052B0CD1614B1B6F604A43F0040370
:1046200013675E4B1B6F5D4A43F0010313670BE09A
:104630005A4B1B6F594A23F001031367574B1B6FEB
:10464000564A23F0040313677B689B68002B15D040
:1046500000F01CFC38610AE000F018FC02463B69DF
:10466000D31A41F28832934201D90323D7E04B4B4E
:104670001B6F03F00203002BEED014E000F006FCE9
:1046800038610AE000F002FC02463B69D31A41F2AD
:104690008832934201D90323C1E0404B1B6F03F0E2
:1046A0000203002BEED1FB7D012B05D13B4B1B6C94
:1046B0003A4A23F0805313647B689B69002B00F017
:1046C000AD80364B9B6803F00C03082B60D07B68F1
:1046D0009B69022B45D1334B00221A6000F0D6FBB8
:1046E000386108E000F0D2FB02463B69D31A022B86
:1046F00001D9032393E0294B1B6803F00073002BBF
:10470000F0D17B68DA697B681B6A1A437B685B6A55
:104710009B011A437B689B6A5B08013B1B041A439D
:104720007B68DB6A1B061A437B681B6B1B071B49F4
:1047300013434B601B4B01221A6000F0A7FB38614A
:1047400008E000F0A3FB02463B69D31A022B01D913
:10475000032364E0114B1B6803F00073002BF0D0BF
:104760005CE0104B00221A6000F090FB386108E01A
:1047700000F08CFB02463B69D31A022B01D90323BC
:104780004DE0064B1B6803F00073002BF0D145E0B1
:104790007B689B69012B07D1012340E00038024070
:1047A00000700040600047421F4B5B68FB607B6805
:1047B0009B69012B30D0FB6803F480027B68DB69C6
:1047C0009A4229D1FB6803F03F027B681B6A9A4238
:1047D00022D1FA6847F6C07313407A68526A920190
:1047E000934219D1FB6803F440327B689B6A5B08F3
:1047F000013B1B049A420FD1FB6803F070627B6897
:10480000DB6A1B069A4207D1FB6803F0E0427B6833
:104810001B6B1B079A4201D0012300E000231846BE
:104820001837BD4680BD00BF0038024080B489B053
:1048300000AF7860396000237B6100233B61002377
:10484000BB610023FB6165E10122FB6902FA03F30E
:104850007B613B681B687A6913403B613A697B69FD
:104860009A4240F054813B685B6803F00303012BDC
:1048700005D03B685B6803F00303022B30D17B68F3
:104880009B68BB61FB695B00032202FA03F3DB4315
:10489000BA691340BB613B68DA68FB695B0002FAE6
:1048A00003F3BA691343BB617B68BA699A607B689A
:1048B0005B68BB610122FB6902FA03F3DB43BA695F
:1048C0001340BB613B685B681B0903F00102FB6995
:1048D00002FA03F3BA691343BB617B68BA695A6091
:1048E0003B685B6803F00303032B17D07B68DB682E
:1048F000BB61FB695B00032202FA03F3DB43BA6985
:104900001340BB613B689A68FB695B0002FA03F3E2
:10491000BA691343BB617B68BA69DA603B685B685C
:1049200003F00303022B23D1FB69DA087B6808320A
:1049300053F82230BB61FB6903F007039B000F2291
:1049400002FA03F3DB43BA691340BB613B681A699F
:10495000FB6903F007039B0002FA03F3BA691343F0
:10496000BB61FB69DA087B680832B96943F8221039
:104970007B681B68BB61FB695B00032202FA03F3DF
:10498000DB43BA691340BB613B685B6803F0030219
:10499000FB695B0002FA03F3BA691343BB617B68EE
:1049A000BA691A603B685B6803F44033002B00F07F
:1049B000AE800023FB605D4B5B6C5C4A43F480433C
:1049C00053645A4B5B6C03F48043FB60FB68584AAA
:1049D000FB699B08023352F82330BB61FB6903F08B
:1049E00003039B000F2202FA03F3DB43BA6913406F
:1049F000BB617B684F4A934225D07B684E4A934205
:104A00001FD07B684D4A934219D07B684C4A934231
:104A100013D07B684B4A93420DD07B684A4A93423D
:104A200007D07B68494A934201D106230CE0072353
:104A30000AE0052308E0042306E0032304E0022340
:104A400002E0012300E00023FA6902F00302920071
:104A50009340BA691343BB613549FB699B08023334
:104A6000BA6941F823203A4B9B68BB613B69DB4341
:104A7000BA691340BB613B685B6803F48013002B89
:104A800003D0BA693B691343BB61314ABB69936088
:104A90002F4BDB68BB613B69DB43BA691340BB61E9
:104AA0003B685B6803F40013002B03D0BA693B69D1
:104AB0001343BB61264ABB69D360254B5B68BB616E
:104AC0003B69DB43BA691340BB613B685B6803F435
:104AD0000033002B03D0BA693B691343BB611C4A06
:104AE000BB6953601A4B1B68BB613B69DB43BA6906
:104AF0001340BB613B685B6803F48033002B03D039
:104B0000BA693B691343BB61114ABB691360FB6916
:104B10000133FB61FB690F2B7FF696AE00BF00BF30
:104B20002437BD465DF8047B704700BF0038024063
:104B3000003801400000024000040240000802402A
:104B4000000C024000100240001402400018024015
:104B5000003C014080B483B000AF78600B467B809E
:104B600013467B707B78002B03D07A887B689A6130
:104B700003E07B881A047B689A6100BF0C37BD464E
:104B80005DF8047B704780B485B000AF78600B4659
:104B90007B807B685B69FB607A88FB6813401A0442
:104BA000FB68D9437B880B401A437B689A6100BF3E
:104BB0001437BD465DF8047B7047000080B582B0B5
:104BC00000AF00237B6000233B60204B1B6C1F4A1F
:104BD00043F0805313641D4B1B6C03F080533B6008
:104BE0003B681B4B01221A6000F050F9786009E025
:104BF00000F04CF902467B68D31AB3F57A7F01D9ED
:104C000003231FE0134B5B6803F48033B3F5803F4D
:104C1000EED1114B01221A6000F038F9786009E0FA
:104C200000F034F902467B68D31AB3F57A7F01D9D4
:104C3000032307E0074B5B6803F40033B3F5003F41
:104C4000EED1002318460837BD4680BD003802402B
:104C500040000E420070004044000E4280B485B017
:104C600000AF78607B6803F00703FB600C4BDB68E8
:104C7000BB60BA684FF6FF031340BB60FB681A02C3
:104C8000BB68134343F0BF6343F40033BB60044A83
:104C9000BB68D36000BF1437BD465DF8047B704726
:104CA00000ED00E080B400AF044BDB681B0A03F0AA
:104CB00007031846BD465DF8047B704700ED00E031
:104CC00080B483B000AF0346FB7197F90730002B27
:104CD0000BDBFB7903F01F02074997F907305B09EB
:104CE000012000FA02F241F8232000BF0C37BD4634
:104CF0005DF8047B704700BF00E100E080B483B042
:104D000000AF03463960FB7197F90730002B0ADBCF
:104D10003B68DAB20C4997F907301201D2B20B4462
:104D200083F800230AE03B68DAB20849FB7903F014
:104D30000F03043B1201D2B20B441A7600BF0C37AA
:104D4000BD465DF8047B704700E100E000ED00E047
:104D500080B489B000AFF860B9607A60FB6803F096
:104D60000703FB61FB69C3F10703042B28BF04237E
:104D7000BB61FB690433062B02D9FB69033B00E0EE
:104D800000237B614FF0FF32BB6902FA03F3DA4381
:104D9000BB681A407B699A404FF0FF317B6901FA8A
:104DA00003F3D9437B680B40134318462437BD46B1
:104DB0005DF8047B704780B582B000AF786078689A
:104DC000FFF74CFF00BF0837BD4680BD80B586B0F9
:104DD00000AF0346B9607A60FB7300237B61FFF785
:104DE00061FF78617A68B9687869FFF7B1FF0246B8
:104DF00097F90F3011461846FFF780FF00BF1837AC
:104E0000BD4680BD80B582B000AF0346FB7197F907
:104E100007301846FFF754FF00BF0837BD4680BD76
:104E200080B500AF0E4B1B680D4A43F4007313604E
:104E30000B4B1B680A4A43F480631360084B1B68E2
:104E4000074A43F4807313600320FFF7B4FF0F2079
:104E500000F02AFA00F0A2F90023184680BD00BF36
:104E6000003C024080B400AF064B1B781A46064B4C
:104E70001B681344044A136000BFBD465DF8047B01
:104E8000704700BF0C000020184B002080B400AF1A
:104E9000034B1B681846BD465DF8047B704700BF96
:104EA000184B002080B500AFFFF7BAFF00F00CF8F8
:104EB00000F094F800F000F9FEF702F800F0D2F9E3
:104EC000FEF722F800BFFDE780B594B000AF07F110
:104ED0001C03342200211846FBF774FA07F108037B
:104EE00000221A605A609A60DA601A6100237B60BF
:104EF0002C4B1B6C2B4A43F080531364294B1B6CC7
:104F000003F080537B607B6800233B60264B1B686B
:104F1000254A43F440431360234B1B6803F440438A
:104F20003B603B680223FB610123BB621023FB62F1
:104F300002237B630023BB630823FB63B4233B642E
:104F400002237B640223BB640223FB6407F11C037E
:104F50001846FFF7CDF90346002B01D000F038F8D2
:104F6000FFF72CFE0346002B01D000F031F80F2391
:104F7000BB600223FB6000233B614FF4A0537B61C5
:104F80004FF48053BB6107F1080305211846FEF773
:104F900033FE0346002B01D000F01AF800BF503753
:104FA000BD4680BD003802400070004080B582B030
:104FB00000AF78607B681B68044A934201D1FFF719
:104FC00051FF00BF0837BD4680BD00BF0010004044
:104FD00080B400AF72B600BF00BFFDE780B58AB0F5
:104FE00000AF07F1140300221A605A609A60DA6079
:104FF0001A6100233B612D4B1B6B2C4A43F00403C9
:1050000013632A4B1B6B03F004033B613B690023D2
:10501000FB60264B1B6B254A43F080031363234B35
:105020001B6B03F08003FB60FB680023BB601F4B1E
:105030001B6B1E4A43F0010313631C4B1B6B03F0F5
:105040000103BB60BB6800237B60184B1B6B174AD6
:1050500043F002031363154B1B6B03F002037B60E9
:105060007B68002220211248FFF774FD4FF40053A3
:105070007B614FF40413BB610023FB6107F1140350
:1050800019460C48FFF7D2FB20237B610123BB614B
:105090000023FB6100233B6207F114031946044817
:1050A000FFF7C4FB00BF2837BD4680BD0038024073
:1050B000000002400008024080B500AF114B124AC8
:1050C0001A60104B4FF4E1325A600E4B00229A6086
:1050D0000C4B0022DA600B4B00221A61094B0C22A8
:1050E0005A61084B00229A61064B0022DA6105489A
:1050F000FEF7C0FA0346002B01D0FFF769FF00BF9F
:1051000080BD00BF1C4B00200044004080B58AB029
:1051100000AF786007F1140300221A605A609A60A9
:10512000DA601A617B681B68194A93422BD100230D
:105130003B61184B1B6C174A43F400331364154B47
:105140001B6C03F400333B613B690023FB60114B94
:105150001B6B104A43F0010313630E4B1B6B03F0F0
:105160000103FB60FB680C237B610223BB6100230E
:10517000FB6103233B6207237B6207F1140319469B
:105180000548FFF753FB00BF2837BD4680BD00BF71
:1051900000440040003802400000024080B582B068
:1051A00000AF00237B60124B5B6C114A43F48043D9
:1051B00053640F4B5B6C03F480437B607B6800237C
:1051C0003B600B4B1B6C0A4A43F080531364084B43
:1051D0001B6C03F080533B603B6800220F216FF093
:1051E0000100FFF7F3FD00BF0837BD4680BD00BFDB
:1051F0000038024080B400AF00BFFDE780B400AFCC
:1052000000BFFDE780B400AF00BFFDE780B400AF92
:1052100000BFFDE780B400AF00BFFDE780B400AF82
:1052200000BFBD465DF8047B7047000080B500AF4D
:105230000248FEF73BF800BF80BD00BF644B002072
:1052400080B400AF064BD3F88830054A43F47003AE
:10525000C2F8883000BFBD465DF8047B704700BFD0
:1052600000ED00E080B500AF044A00210448FDF7DE
:1052700071FE0346034A136000BF80BD005700085B
:1052800089520008604B002080B582B000AF786082
:1052900020210448FFF777FC4FF47A70FDF7ECFE0D
:1052A00000BFF5E70000024080B58EB000AF786027
:1052B0000023FB620023BB620023FB60334B1B6CAB
:1052C000324A43F010031364304B1B6C03F010039D
:1052D000FB60FB6807F1100207F114031146184642
:1052E000FEF7A4FD3B6AFB62FB6A002B03D1FEF7CD
:1052F00075FD786304E0FEF771FD03465B007B6398
:105300007B6B234AA2FB03239B0C013BBB62214B1B
:10531000214A1A601F4B40F2E732DA601D4ABB6A2D
:1053200053601C4B00221A611A4B00229A60194BE1
:1053300000229A611748FDF7EFFE034687F83330E5
:1053400097F83330002B1BD11248FDF73FFF03467F
:1053500087F8333097F83330002B11D13620FFF720
:1053600051FD7B680F2B08D8002279683620FFF7A3
:105370002DFD0A4A7B68136002E0012387F8333071
:1053800097F8333018463837BD4680BD00380240A4
:1053900083DE1B43644B0020001000400800002007
:1053A000DFF834D00D480E490E4A002302E0D458ED
:1053B000C4500433C4188C42F9D30B4A0B4C00235D
:1053C00001E013600432A242FBD3FFF739FFFBF781
:1053D0004BF8FFF767FD7047000002200000002037
:1053E000140000203857000814000020AC4B0020A7
:1053F000FEE700002DE9F047089D0C46002B4ED13A
:1054000094468C458646B2FA82F262D94AB1C2F11C
:105410002003914020FA03F30CFA02FC194300FA2E
:1054200002FE4FEA1C471FFA8CF6B1FBF7F44FEA75
:105430001E4307FB141143EA014304FB06F19942A2
:105440000AD91CEB030304F1FF3080F0128199426A
:1054500040F20F81023C6344591A1FFA8EF3B1FBEC
:10546000F7F007FB101143EA014300FB06F69E42EA
:105470000AD91CEB030300F1FF3180F0FC809E424F
:1054800040F2F980634402389B1B40EA044000214B
:105490001DB1D3400022C5E90032BDE8F0878B4240
:1054A00005D90DB1C5E9000100210846F5E7B3FAB9
:1054B00083F1002946D1A34202D39042C0F0F0808C
:1054C000861A64EB03030120002DE6D0C5E90063D2
:1054D000E3E7002A40F09080A1EB0C044FEA1C485F
:1054E0001FFA8CF70121B4FBF8F64FEA1E4308FBC4
:1054F000164443EA044307FB06F0984208D91CEB24
:10550000030306F1FF3402D2984200F2CD80264612
:105510001C1A1FFA8EF3B4FBF8F008FB104443EAA0
:10552000044300FB07F79F4208D91CEB030300F17B
:10553000FF3402D29F4200F2B0802046DB1B40EADB
:105540000640A5E7C1F120068B4022FA06F71F436B
:1055500020FA06FC04FA01F343EA0C03F44000FAD3
:1055600001F8380C4FEA1349B4FBF0FE1FFA87FC30
:1055700000FB1E4449EA04440EFB0CF9A14502FA63
:1055800001F20AD93C190EF1FF3A80F08480A1455E
:1055900040F28180AEF1020E3C44A4EB09041FFAF4
:1055A00083F9B4FBF0F300FB134449EA044403FB22
:1055B0000CFCA44507D93C1903F1FF3067D2A44580
:1055C00065D9023B3C4443EA0E40A0FB0293A4EBA6
:1055D0000C049C42CE469C4651D34ED055B1B8EBFC
:1055E0000E0364EB0C0404FA06F6CB401E43CC40D9
:1055F000C5E90064002150E7C2F1200320FA03F15D
:105600000CFA02FC24FA03F394400C434FEA1C48C2
:1056100000FA02FE1FFA8CF7B3FBF8F008FB10311A
:10562000230C43EA014300FB07F1994208D91CEB24
:10563000030300F1FF362CD299422AD90238634481
:105640005B1AA4B2B3FBF8F108FB113344EA03443C
:1056500001FB07F3A34208D91CEB040401F1FF3658
:1056600013D2A34211D902396444E41A41EA004139
:1056700039E70446F0E6084606E7C845AED2B9EB7E
:10568000020E63EB070C0138A8E73146EDE703464D
:1056900099E73046D4E7D6467FE7634402384DE7C2
:1056A0000646234608460FE7023E634430E700BF44
:1056B000F8B500BFF8BC08BC9E467047F8B500BFFF
:0856C000F8BC08BC9E467047CF
:1056C80049444C4500000000546D72205376630035
:1056D800546D7251000000005461736B5F3100001B
:1056E800000000000000000001020304060708098A
:1056F8000000000001020304E0560008000000005A
:10570800000000000000000000000000000200008F
:0C5718000800000000000000000000007D
:08572400E0AAFF7F0100000074
:08572C00C1040008A1030008FC
:0457340079030008ED
:1057380030000020AAAAAAAA100000000100000058
:045748000024F40045
:04000005080053A1FB
:00000001FF
